:100000000C942A000C9402010C943C000C943C00CB
:100010000C943C000C943C000C943C000C943C0070
:100020000C943C000C943C000C943C000C943C0060
:100030000C943C000C943C000C943C000C943C0050
:100040000C943C000C943C000C943C000C943C0040
:100050000C943C0011241FBECFE5D8E0DEBFCDBF1D
:1000600020E0A0E6B0E001C01D92A236B207E1F7A1
:100070000E947D010C941B030C94000060E081E45D
:100080000E941D0188E893E10E94FE0260E081E485
:100090000E94210110926100089561E081E40E94B4
:1000A000250161E081E40E94210181E080936100EB
:1000B000089562E081E40E941D0188E893E10E94B6
:1000C000FE0262E081E40E94210182E080936100EF
:1000D000089580916100813009F118F08230D9F1E2
:1000E000089521E042E461E081E40E94490162E078
:1000F00081E40E941D0160E082E40E941D0188E805
:1001000093E10E94FE0262E081E40E94210160E02E
:1001100082E40E94210110926000089521E042E4EF
:1001200061E081E40E94490162E081E40E941D01D6
:1001300060E082E40E941D0188E893E10E94FE02D3
:1001400062E081E40E94210160E082E40E942101DA
:1001500010926000089562E081E40E941D0160E059
:1001600082E40E941D0188E893E10E94FE0262E0A1
:1001700081E40E94210160E082E40E94210110924A
:100180006000089560E081E40E94190161E081E46B
:100190000E94190162E081E40E94190160E082E49A
:1001A0000E94190161E082E40E94190162E082E488
:1001B0000E94190162E084E40E94150163E080E07E
:1001C0000E9478020895809160008111FCCF0E9406
:1001D0003E0080916000813019F40E946900F3CFE5
:1001E0000E944D0080916000813019F40E946900E6
:1001F000EACF0E94590080916000813021F70E946F
:100200006900E1CF1F920F920FB60F9211248F93C6
:1002100080916000811103C081E0809360008F9124
:100220000F900FBE0F901F90189540E00E94840120
:10023000089541E00E948401089541E00E94FE017A
:10024000089540E00E94FE0108950F931F93CF93FD
:10025000DF93082F162FC0E0D0E013C041E0612FDC
:10026000802F0E94FE018AEF90E00E94FE0240E093
:10027000612F802F0E94FE018AEF90E00E94FE0213
:100280002196CA30D10554F3DF91CF911F910F9180
:100290000895EF92FF920F931F93CF93DF93E82E71
:1002A000F62E042F122FC0E0D0E01DC041E06F2DCC
:1002B0008E2D0E94FE0141E0612F802F0E94FE01E1
:1002C0008AEF90E00E94FE0240E06F2D8E2D0E948A
:1002D000FE0140E0612F802F0E94FE018AEF90E036
:1002E0000E94FE022196CA30D10504F3DF91CF911E
:1002F0001F910F91FF90EF9008950E94C2000E94FD
:10030000E30080E090E00895823431F118F4813404
:1003100039F008958334E1F1843409F454C0089528
:1003200041110CC02AB381E090E002C0880F991FF0
:100330006A95E2F7809582238ABB0895413009F0DF
:100340005CC02AB381E090E002C0880F991F6A95D3
:10035000E2F7822B8ABB089541110CC027B381E0DC
:1003600090E002C0880F991F6A95E2F7809582237A
:1003700087BB0895413009F040C027B381E090E089
:1003800002C0880F991F6A95E2F7822B87BB0895F8
:1003900041110CC024B381E090E002C0880F991F86
:1003A0006A95E2F78095822384BB0895413029F550
:1003B00024B381E090E002C0880F991F6A95E2F7AC
:1003C000822B84BB089541110CC021B381E090E0E1
:1003D00002C0880F991F6A95E2F78095822381BB3E
:1003E0000895413051F421B381E090E002C0880FBC
:1003F000991F6A95E2F7822B81BB0895823431F10F
:1004000018F4813439F008958334E1F1843409F427
:1004100054C0089541110CC02BB381E090E002C09C
:10042000880F991F6A95E2F7809582238BBB089508
:10043000413009F05CC02BB381E090E002C0880F2E
:10044000991F6A95E2F7822B8BBB089541110CC06E
:1004500028B381E090E002C0880F991F6A95E2F707
:100460008095822388BB0895413009F040C028B3AD
:1004700081E090E002C0880F991F6A95E2F7822B15
:1004800088BB089541110CC025B381E090E002C003
:10049000880F991F6A95E2F78095822385BB08959E
:1004A000413029F525B381E090E002C0880F991F03
:1004B0006A95E2F7822B85BB089541110CC022B3E7
:1004C00081E090E002C0880F991F6A95E2F780955D
:1004D000822382BB0895413051F422B381E090E041
:1004E00002C0880F991F6A95E2F7822B82BB08959C
:1004F0009FB790689FBF613001F130F06230B1F179
:10050000633009F454C0089581110AC085B78E7F05
:1005100085BF85B78D7F85BF8BB780648BBF0895FE
:10052000813009F064C085B78B7F85BF85B7877F31
:1005300085BF8BB780688BBF089581110AC085B7CE
:10054000816085BF85B78D7F85BF8BB780648BBF8A
:100550000895813009F04BC085B7846085BF85B7A9
:10056000877F85BF8BB780688BBF089581110AC0D4
:1005700085B78E7F85BF85B7826085BF8BB7806466
:100580008BBF0895813051F485B7846085BF85B7EE
:10059000877F85BF8BB780688BBF0895823039F520
:1005A00085B78F7B85BF8BB780628BBF0895811124
:1005B0000AC085B7816085BF85B7826085BF8BB76C
:1005C00080648BBF0895813051F485B7846085BF06
:1005D00085B7886085BF8BB780688BBF08958230F0
:1005E00031F485B7806485BF8BB780628BBF089577
:1005F00083B7816083BF089513BE0895CF93DF93BF
:10060000EC010E94F80220E030E008C008B600FECD
:10061000FDCF88B7816088BF2F5F3F4FCE01880F25
:10062000991F880F991F2817390780F30E94FC0231
:0A063000DF91CF910895F894FFCFF9
:00000001FF
